:020000020000FC
:0800000014C070C271C262C29B
:020012004CC2DE
:10002A000FE50DBF02E00EBF35D050D0689478942A
:10003A00B1D10023E9F3013091F00230B1F003307D
:10004A00F1F00430A1F00530A1F00630A1F008303B
:10005A00A1F00A30B1F00B30B1F00C30B1F00FB7AB
:10006A0006FDE89406FF689411C0CAD00FC04CD0B0
:10007A000DC01AD10BC086D009C0ECD007C0FFD181
:10008A0005C03AD103C057D101C046D183D100235C
:10009A00E9F7CECF03E004BB00EF07BB00E001BBEA
:1000AA000DE003BF09B7016009BF0AEF0CBF0FE0FB
:1000BA0005BD09B7006809BF03EF03BD0CE001BB2A
:1000CA000AE005BF00EC0BBF8C9A0895CBD1E0D1B2
:1000DA0066E146D108950F932F93062F2227000F2A
:1000EA0010F02395FCCF022E2F910F9108950F93B4
:1000FA002F93062F077021E00A9511F0220FFCCFEB
:10010A00122E2F910F9108950F931F932F9363FF30
:10011A0027D1E1DF202D062F0770073051F0063076
:10012A00C1F0053011F1043021F0033079F00230CA
:10013A0041F0203019F1162F107F110F6F70612BCB
:10014A001DC0639563956395639518C06395639520
:10015A0015C0203099F06A956A956A956A95162FA6
:10016A00107F110F6F70612B09C0203039F06A952A
:10017A006A95162F107F110F6F70612B2F911F91A7
:10018A000F9108950F931F932F9363FFE9D0A3DF75
:10019A00202D062F0770073051F0063049F105303F
:1001AA0021F1043021F00330B1F0023041F0233064
:1001BA0019F1162F107F16956F70612B1DC0233011
:1001CA00D9F06395639563956395162F107F1695FD
:1001DA006F70612B11C0233079F063956395162FE8
:1001EA00107F16956F70612B07C06A956A9504C0D7
:1001FA006A956A956A956A952F911F910F9108954C
:10020A000F931F932F9363FFABD065DF202D062F2B
:10021A0007700730A9F0063051F0053059F0043064
:10022A0059F0033029F0023011F0013079F00EC094
:10023A006A950CC063950AC063956395639506C079
:10024A006A956A956A956A956A956A952F911F913A
:10025A000F9108950F931F932F9363FF81D03BDF74
:10026A00202D062F07700730C1F00630A1F00530A7
:10027A0089F0043079F0033069F0023049F0013036
:10028A0001F063956395639563956395639508C0DB
:10029A00639506C005C06A9503C06A956A956A9512
:1002AA002F911F910F9108950F931F932F9363FF1F
:1002BA0057D011DF202D062F07700730C1F0063006
:1002CA00A1F0053081F0043061F0033051F00230C2
:1002DA0011F0013001F06395639563956395639519
:1002EA0007C0639505C06A9503C0639501C06A9506
:1002FA002F911F910F9108950F931F932F93EBDE68
:10030A00202D8BD0F4DE212D20951223202D77D09D
:10031A002F911F910F9108950F931F932F93DBDE57
:10032A00202D7BD0E4DE212D122B202D68D02F9199
:10033A001F910F9108950F931F932F93CCDE202DB9
:10034A006CD0D5DE212D012F022319F0209512231E
:10035A0001C0122B202D53D02F911F910F91089578
:10036A000F931F932F93B7DE202D50D0C0DE212D7F
:10037A0063FF07C036F0677F20951223202D38D0FF
:10038A0005C068602068122B202D32D02F911F9152
:10039A000F9108951F932F933F934F9300271FEEBA
:1003AA0043E028B3206F212328BB0000000030B3AC
:1003BA00329537950395379530F44A95D9F70894CD
:1003CA00111F70F300274F913F912F911F910895AC
:1003DA002F932FB72F9320E020D0012F17D010236F
:1003EA0023D023952430C1F72F912FBF2F91089541
:1003FA00E6E2F1E0E20F08F4F39510830895E0E0F5
:10040A00F1E0E20F08F4F39510830895E6E2F1E0D3
:10041A00E20F08F4F39510810895E0E0F1E0E20FAD
:10042A0008F4F395108108950F9308E0110F10F462
:10043A00A99A03C0A99800000000A89A0000000029
:10044A00A8980A9599F70F9108952F932FB72F938C
:10045A0020E010E8D4DF23952430D9F72F912FBF5D
:10046A002F9108952F932FB72F9320E01FEFC7DF07
:10047A0023952430D9F72F912FBF2F91089520E08B
:10048A00CCDF10951068BBDF23952430C9F7089597
:10049A002F9320E01FEFACDF23952430D9F72F915B
:1004AA0008950F931F932F933F934F932FB72F9333
:1004BA008FDF2F912FBF4F913F912F911F910F9156
:1004CA0018950F931F932F932FB72F9349DF2F91CF
:1004DA002FBF2F911F910F911895B7DF1895C2DF83
:0204EA00189563
:00000001FF
