:020000020000FC
:0200000014C02A
:040004000BC2D4C196
:0400100007C2BCC1A6
:10002A000FE50DBF02E00EBF03E004BB00EF07BB04
:10003A0000E001BB68D00BE003BF09B7016009BF4C
:10004A000FEF0CBF0FE005BD09B7006809BF03EF4A
:10005A0003BD04E001BB08E005BF00E80BBF00E1F7
:10006A000FBD08E00EBD8C9A78945EF409B70E7F36
:10007A0009BF1BD0242F21D1FEF309B7016009BFA4
:10008A0042D0A6F322D00023E1F3013009F4DBD0F9
:10009A00023009F43ED1033009F4B5D016D000235A
:1000AA00E9F7E3CF0AEA502B08954F935F936F93D2
:1000BA0045E05AE866E56A95F1F75A95E1F74A95F7
:1000CA00D1F76F915F914F9108951F932F933F93AB
:1000DA004F9300271FEE43E028B3206F212328BB4C
:1000EA000000000030B3329537950395379530F408
:1000FA004A95D9F70894111F70F300274F913F9141
:10010A002F911F9108951F932F9322271FEF6DD0D0
:10011A0023952430D9F75AEA71E06FEC2BD0B3D08B
:10012A0055D044279FE1E8941F912F9108950F938A
:10013A001F93569505E5502333E036E00BBD34EAAC
:10014A003ABD09E00EBD09B7046109BF1F910F91BD
:10015A0008950F931F9300E0E6E5F4E0E00F08F43A
:10016A00F395149199D0A1DF03950B30A9F70F915C
:10017A001F9108950F931F932F933F934F932FB778
:10018A002F930027112722273327442700E8152F0A
:10019A00102311F41FEF04C030FF1EEF30FD1FEBD8
:1001AA003395323039F43327412326D0116414238E
:1001BA001CD02395412F0695243049F72F912FBF44
:1001CA004F913F912F911F910F9108952F932FB720
:1001DA002F93D0DF58D020E00FD05ED02395243063
:1001EA00D9F72F912FBF2F910895E0E0F1E0E20FA8
:1001FA0008F4F39510830895E0E0F1E0E20F08F4C3
:10020A00F395108108950F931F932F9302E0733093
:10021A0069F0272FF1DF1860E8DF7395272FECDFED
:10022A00177FE3DF089467950A95E1F735E00BBD80
:10023A0038E93ABD09E00EBD09B7046109BF2F913B
:10024A001F910F9108950F931F932F9302E070301F
:10025A0069F0272FD1DF1860C8DF7A95272FCCDF06
:10026A00177FC3DF0894661F0A95E1F735E00BBDD7
:10027A0038E93ABD09E00EBD09B7046109BF2F91FB
:10028A001F910F9108951F932F93272FB5DF177F83
:10029A00ACDF2F911F9108950F9308E0110F10F40E
:1002AA00A99A03C0A99800000000A89A00000000BB
:1002BA00A8980A9599F70F9108951F935F936F93E2
:1002CA007F9350E040E030E0245610F05395FCCF85
:1002DA0064E6260F2A5010F04395FCCF6AE0260FF9
:1002EA00322F1FEF0FD0D8DF152F0CD0D5DF142FE8
:1002FA0009D0D2DF132F06D0CFDF7F916F915F91A4
:10030A001F910895E2E6F4E0E10F08F4F3951491E1
:10031A0008950F931F93052F0575102F1623011BA0
:10032A00A9F4052F0A7A102F1623011BE9F0439529
:10033A0031E037E00BBD34E73ABD09E00EBD09B73D
:10034A00046109BF162F1565512317C0439537E07D
:10035A000BBD34E73ABD09E00EBD09B7046109BF18
:10036A00162F1A6A512309C033E00BBD34EF3ABD88
:10037A0009E00EBD09B7046109BFFCDE1F910F91A8
:10038A0008950F931F932F933F934F932FB7022FE5
:10039A002F9306FF1BDF2F912FBF4F913F912F9174
:1003AA001F910F9118950F931F932F933F934F937C
:1003BA002FB7022F2F9306FD21C08917E9F488274A
:1003CA00052F057519F456955A6A16C0689455276B
:1003DA00D1DE4427112721E0000F3FB7223041F434
:1003EA002227439530FF04C04A95742F43954BDF6B
:1003FA0013952395183081F78395E8DE2F913FB73F
:10040A0036FD20642FBF4F913F912F911F910F917D
:10041A001895E89418950F931F932F933F934F9332
:10042A002FB72F93A83C51F4AA27B395B13031F4D2
:10043A00BB2708E00EBD09B70B7E09BF2F912FBF5E
:10044A004F913F912F911F910F911895C288AB86BA
:10045A00FFC0C1868AFFFF00C0F9A4B0999282F852
:02046A00809080
:00000001FF
