:1000000019C028C027C026C025C024C023C022C0D4
:1000100021C020C01FC01EC01DC01CC01BC01AC0F4
:10002000CBC118C017C016C015C014C013C012C071
:1000300011C010C011241FBECFEFD2E0DEBFCDBF74
:1000400021E0A0E0B1E001C01D92A230B207E1F7CB
:1000500088D1E8C2D5CF8BB180648BB90000000095
:1000600000000000000000000000000000008BB154
:100070008F7B8BB908958BB180648BB90000000031
:1000800000008BB18F7B8BB90895BF92CF92DF9226
:10009000EF92FF920F931F93CF93DF938C01D0E0E9
:1000A00046C081E0B81691F0B81620F082E0B8168C
:1000B00039F013C0C12CD12C76016894D7F80BC04D
:1000C000C12CD12C76016894C7F805C0C12CD12C65
:1000D00076016894E7F8C0E020C0C12CD12C7601ED
:1000E000FACFED2FF0E0EE0FFF1FEE0FFF1FE00F36
:1000F000F11F80819181A281B3818C219D21AE214C
:10010000BF21892B8A2B8B2B11F4B5DF01C0A3DF14
:10011000F694E794D794C794CF5FC83010F3B394A4
:1001200001C0B12C82E08B1508F0BBCFDF5FDD236F
:10013000C4F7D0E046C081E0B81691F0B81620F0C0
:1001400082E0B81639F013C0C12CD12C7601689426
:10015000D7F80BC0C12CD12C76016894C7F805C024
:10016000C12CD12C76016894E7F8C0E020C0C12CE6
:10017000D12C7601FACFED2FF0E0EE0FFF1FEE0F3E
:10018000FF1FE00FF11F80819181A281B3818C213B
:100190009D21AE21BF21892B8A2B8B2B11F46BDF84
:1001A00001C059DFF694E794D794C794CF5FC83065
:1001B00010F3B39401C0B12C82E08B1508F0BBCFD3
:1001C000DF5FDD23C4F7DF91CF911F910F91FF9087
:1001D000EF90DF90CF90BF90089584B58C7F84BD61
:1001E00085B5856085BDEEE6F0E080818160808325
:1001F00008950F931F9320E030E040E853E487D147
:1002000020E030E040EC50E482D1EFD0072F182FEF
:10021000292F3327E62F023011052105310501F181
:1002200058F4011511052105310561F10130110561
:100230002105310581F00BC0043011052105310580
:10024000C1F090F00530110521053105B1F020E035
:10025000E0E040E019C0462F409520E0EFEF14C0E9
:10026000262FEFEF40E010C0E62FE0952FEF40E0A3
:100270000BC0462F2FEFE0E007C0262F2095E0E0CF
:100280004FEF02C020E04FEF50E060E070E0BA01B5
:10029000552744278E2F90E0A0E0B0E0BA2FA92F79
:1002A000982F8827840F951FA61FB71FBC01CD016B
:1002B000620F711D811D911D1F910F910895642F73
:1002C00070E0680F711D6031710574F06051710943
:1002D000072E000C880B990BB6D020E030E040E8E8
:1002E0005DE315D186DF0895072E000C880B990B6E
:1002F000AAD020E030E040E85DE309D17ADF08953C
:10030000DF92EF92FF920F931F93CF93DF937C01C5
:10031000D62E00E01CC0C12FD0E04D2D602F812FC4
:10032000CEDFCC0FDD1FCC0FDD1F970140E4049F13
:10033000200D311D1124C20FD31F688379838A8356
:100340009B831F5F01C010E0103128F30F5F08305E
:10035000D0F3DF91CF911F910F91FF90EF90DF903D
:100360000895CF93DF93CDB7DEB7D2500FB6F89490
:10037000DEBF0FBECDBF8AB180648AB9789465E0D4
:10038000CE010196BDDFCE0101967FDE26DF15E0AE
:100390000EC0103110F41F5F01C010E0612FCE01BC
:1003A0000196AEDFCE01019670DE109200018091C1
:1003B00000018111EECFFBCF1F920F920FB60F926B
:1003C00011248F9380910101883331F481E080936F
:1003D00000011092010103C08F5F809301018F9192
:1003E0000F900FBE0F901F90189570D088F09F57F8
:1003F00090F0B92F9927B751A0F0D1F0660F771F71
:10040000881F991F1AF0BA95C9F712C0B13081F050
:1004100077D0B1E0089574C0672F782F8827B85F30
:1004200039F0B93FCCF3869577956795B395D9F7B1
:100430003EF490958095709561957F4F8F4F9F4FBB
:100440000895E89409C097FB3EF4909580957095C7
:1004500061957F4F8F4F9F4F9923A9F0F92F96E910
:10046000BB279395F695879577956795B795F11185
:10047000F8CFFAF4BB0F11F460FF1BC06F5F7F4F22
:100480008F4F9F4F16C0882311F096E911C0772334
:1004900021F09EE8872F762F05C0662371F096E83D
:1004A000862F70E060E02AF09A95660F771F881F0C
:1004B000DAF7880F9695879597F9089557FD905824
:1004C000440F551F59F05F3F71F04795880F97FB18
:1004D000991F61F09F3F79F08795089512161306D2
:1004E0001406551FF2CF4695F1DF08C01616170601
:1004F0001806991FF1CF8695710561050894089536
:10050000E894BB2766277727CB0197F908950BD08E
:1005100078C069D028F06ED018F0952309F05AC041
:100520005FC01124EECFCADFA0F3959FD1F3950FE2
:1005300050E0551F629FF001729FBB27F00DB11D67
:10054000639FAA27F00DB11DAA1F649F6627B00DF7
:10055000A11D661F829F2227B00DA11D621F739FE0
:10056000B00DA11D621F839FA00D611D221F749FEE
:100570003327A00D611D231F849F600D211D822F35
:10058000762F6A2F11249F5750408AF0E1F088237C
:100590004AF0EE0FFF1FBB1F661F771F881F915089
:1005A0005040A9F79E3F510570F014C0AACF5F3F9D
:1005B000ECF3983EDCF3869577956795B795F795BC
:1005C000E7959F5FC1F7FE2B880F911D9695879544
:1005D00097F9089597F99F6780E870E060E00895C3
:1005E0009FEF80EC089500240A941616170618064B
:1005F0000906089500240A94121613061406050627
:100600000895092E0394000C11F4882352F0BB0FB7
:1006100040F4BF2B11F460FF04C06F5F7F4F8F4F1A
:080620009F4F0895F894FFCFED
:00000001FF
